:100000000C942A000C9434000C9434000C943400AA
:100010000C9434000C9434000C9434000C94340090
:100020000C9434000C9434000C9434000C94340080
:100030000C9434000C9434000C9434000C94340070
:100040000C9434000C9434000C9434000C94340060
:100050000C94340011241FBECFE5D8E0DEBFCDBF25
:100060000E941F030C942A030C940000DF93CF938B
:1000700000D000D000D0CDB7DEB78A836B834C832D
:1000800081E089838A81843008F0D0C08B818830F8
:1000900008F0CCC08C81823008F0C8C08A81282F3B
:1000A00030E03E832D836D817E816130710509F4DE
:1000B00041C08D819E818230910534F42D813E8135
:1000C0002115310571F0B0C06D817E8162307105FE
:1000D00009F459C08D819E818330910509F47CC05B
:1000E000A3C0AAE3B0E0EAE3F0E08081482F8B816F
:1000F000282F30E081E090E002C0880F991F2A95F8
:10010000E2F7809584238C93AAE3B0E0EAE3F0E081
:100110008081482F8C81282F30E08B81882F90E0C0
:10012000B90102C0660F771F8A95E2F7CB01842BD5
:100130008C937AC0A8E3B0E0E8E3F0E08081482F38
:100140008B81282F30E081E090E002C0880F991F5A
:100150002A95E2F7809584238C93A8E3B0E0E8E346
:10016000F0E08081482F8C81282F30E08B81882F10
:1001700090E0B90102C0660F771F8A95E2F7CB01C4
:10018000842B8C9351C0A5E3B0E0E5E3F0E08081DF
:10019000482F8B81282F30E081E090E002C0880F4B
:1001A000991F2A95E2F7809584238C93A5E3B0E00C
:1001B000E5E3F0E08081482F8C81282F30E08B81AF
:1001C000882F90E0B90102C0660F771F8A95E2F789
:1001D000CB01842B8C9328C0A2E3B0E0E2E3F0E0F3
:1001E0008081482F8B81282F30E081E090E002C091
:1001F000880F991F2A95E2F7809584238C93A2E3B8
:10020000B0E0E2E3F0E08081482F8C81282F30E0DD
:100210008B81882F90E0B90102C0660F771F8A9505
:10022000E2F7CB01842B8C93198202C082E0898390
:10023000898126960FB6F894DEBF0FBECDBFCF9151
:10024000DF910895DF93CF9300D000D000D0CDB7D9
:10025000DEB78A836B834C8381E089838A81843013
:1002600008F0D0C08B81883008F0CCC08C818230FF
:1002700008F0C8C08A81282F30E03E832D836D812D
:100280007E816130710509F441C08D819E8182308B
:10029000910534F42D813E812115310571F0B0C0F6
:1002A0006D817E816230710509F459C08D819E8116
:1002B0008330910509F47CC0A3C0ABE3B0E0EBE36D
:1002C000F0E08081482F8B81282F30E081E090E0A2
:1002D00002C0880F991F2A95E2F7809584238C939A
:1002E000ABE3B0E0EBE3F0E08081482F8C81282F76
:1002F00030E08B81882F90E0B90102C0660F771F34
:100300008A95E2F7CB01842B8C937AC0A7E3B0E007
:10031000E7E3F0E08081482F8B81282F30E081E0F7
:1003200090E002C0880F991F2A95E2F780958423F8
:100330008C93A7E3B0E0E7E3F0E08081482F8C8165
:10034000282F30E08B81882F90E0B90102C0660F22
:10035000771F8A95E2F7CB01842B8C9351C0A4E3DD
:10036000B0E0E4E3F0E08081482F8B81282F30E07B
:1003700081E090E002C0880F991F2A95E2F78095EE
:1003800084238C93A4E3B0E0E4E3F0E08081482F81
:100390008C81282F30E08B81882F90E0B90102C03A
:1003A000660F771F8A95E2F7CB01842B8C9328C0C8
:1003B000A1E3B0E0E1E3F0E08081482F8B81282FBA
:1003C00030E081E090E002C0880F991F2A95E2F7A3
:1003D000809584238C93A1E3B0E0E1E3F0E0808199
:1003E000482F8C81282F30E08B81882F90E0B90135
:1003F00002C0660F771F8A95E2F7CB01842B8C939E
:10040000198202C082E08983898126960FB6F8940A
:10041000DEBF0FBECDBFCF91DF910895DF93CF93A5
:10042000CDB7DEB727970FB6F894DEBF0FBECDBFAE
:100430008A836B835D834C8381E089838A818430E6
:1004400008F076C08B81883008F072C08A81282F2E
:1004500030E03F832E834E815F814130510559F159
:100460008E819F818230910534F42E813F81211548
:10047000310569F05BC04E815F814230510579F1F1
:100480008E819F818330910509F43DC04FC0E9E31F
:10049000F0E08081282F30E08B81882F90E0A90147
:1004A00002C0559547958A95E2F7CA018170EC81A3
:1004B000FD8180833BC0E6E3F0E08081282F30E0BF
:1004C0008B81882F90E0A90102C0559547958A95A8
:1004D000E2F7CA018170EC81FD81808327C0E3E3EC
:1004E000F0E08081282F30E08B81882F90E0A901F7
:1004F00002C0559547958A95E2F7CA018170EC8153
:10050000FD81808313C0E0E3F0E08081282F30E09C
:100510008B81882F90E0A90102C0559547958A9557
:10052000E2F7CA018170EC81FD818083198202C0EB
:1005300082E08983898127960FB6F894DEBF0FBECB
:10054000CDBFCF91DF910895DF93CF9300D000D03E
:10055000CDB7DEB781E08C838B8181608B838B810B
:100560008D7F8B838A818B7F8A8389818460898355
:100570008981826089838A8188608A838A81806197
:100580008A838A818F7D8A838A818F7B8A838A810D
:100590008F778A838981877F898389818F7E898309
:1005A00089818F7D898389818F7B8983EBE2F0E06C
:1005B0008B818083EBE2F0E08A818083E0E4F0E0ED
:1005C00089818083E0E4F0E01082E9E2F0E087E6F0
:1005D00080838C810F900F900F900F90CF91DF91BF
:1005E0000895DF93CF9300D0CDB7DEB78A8381E043
:1005F0008983ECE2F0E08A818083EBE2F0E08081A5
:10060000882F90E0807490700097B9F389810F90E3
:100610000F90CF91DF910895DF93CF930F92CDB7D5
:10062000DEB781E08983EBE2F0E080818823DCF7AC
:10063000ECE2F0E080810F90CF91DF910895DF939D
:10064000CF93CDB7DEB70E94A40280E090E0CF91B7
:08065000DF910895F894FFCF3B
:00000001FF
